{
  "_format": "hh-sol-artifact-1",
  "contractName": "NFTMarketplace",
  "sourceName": "contracts/NFTMarketplace.sol",
  "abi": [
    {
      "inputs": [
        {
          "internalType": "address",
          "name": "feeDestinationAccount",
          "type": "address"
        },
        {
          "internalType": "uint256",
          "name": "feeAmount",
          "type": "uint256"
        }
      ],
      "stateMutability": "nonpayable",
      "type": "constructor"
    },
    {
      "anonymous": false,
      "inputs": [
        {
          "indexed": true,
          "internalType": "address",
          "name": "nftAddress",
          "type": "address"
        },
        {
          "indexed": false,
          "internalType": "uint256",
          "name": "tokenId",
          "type": "uint256"
        },
        {
          "indexed": true,
          "internalType": "address",
          "name": "seller",
          "type": "address"
        },
        {
          "indexed": false,
          "internalType": "uint256",
          "name": "cancelTimestamp",
          "type": "uint256"
        }
      ],
      "name": "AuctionCancelled",
      "type": "event"
    },
    {
      "anonymous": false,
      "inputs": [
        {
          "indexed": true,
          "internalType": "address",
          "name": "nftAddress",
          "type": "address"
        },
        {
          "indexed": true,
          "internalType": "uint256",
          "name": "tokenId",
          "type": "uint256"
        },
        {
          "indexed": false,
          "internalType": "address",
          "name": "seller",
          "type": "address"
        },
        {
          "indexed": false,
          "internalType": "uint256",
          "name": "floorPrice",
          "type": "uint256"
        },
        {
          "indexed": false,
          "internalType": "uint256",
          "name": "startTimestamp",
          "type": "uint256"
        },
        {
          "indexed": false,
          "internalType": "uint256",
          "name": "endTimestamp",
          "type": "uint256"
        }
      ],
      "name": "AuctionCreated",
      "type": "event"
    },
    {
      "anonymous": false,
      "inputs": [
        {
          "indexed": true,
          "internalType": "address",
          "name": "nftAddress",
          "type": "address"
        },
        {
          "indexed": false,
          "internalType": "uint256",
          "name": "tokenId",
          "type": "uint256"
        },
        {
          "indexed": false,
          "internalType": "uint256",
          "name": "amountId",
          "type": "uint256"
        },
        {
          "indexed": true,
          "internalType": "address",
          "name": "seller",
          "type": "address"
        },
        {
          "indexed": true,
          "internalType": "address",
          "name": "buyer",
          "type": "address"
        },
        {
          "indexed": false,
          "internalType": "uint256",
          "name": "endTimestamp",
          "type": "uint256"
        }
      ],
      "name": "AuctionFinished",
      "type": "event"
    },
    {
      "anonymous": false,
      "inputs": [
        {
          "indexed": true,
          "internalType": "address",
          "name": "bidder",
          "type": "address"
        },
        {
          "indexed": true,
          "internalType": "address",
          "name": "nftAddress",
          "type": "address"
        },
        {
          "indexed": false,
          "internalType": "uint256",
          "name": "tokenId",
          "type": "uint256"
        },
        {
          "indexed": false,
          "internalType": "uint256",
          "name": "bid",
          "type": "uint256"
        },
        {
          "indexed": false,
          "internalType": "uint256",
          "name": "timestamp",
          "type": "uint256"
        }
      ],
      "name": "BidWithdrawn",
      "type": "event"
    },
    {
      "anonymous": false,
      "inputs": [
        {
          "indexed": false,
          "internalType": "address",
          "name": "previousFeeAccount",
          "type": "address"
        },
        {
          "indexed": false,
          "internalType": "address",
          "name": "newfeeAcount",
          "type": "address"
        }
      ],
      "name": "FeeAccountUpdated",
      "type": "event"
    },
    {
      "anonymous": false,
      "inputs": [
        {
          "indexed": false,
          "internalType": "uint256",
          "name": "previousFeeAmount",
          "type": "uint256"
        },
        {
          "indexed": false,
          "internalType": "uint256",
          "name": "newFeeAmount",
          "type": "uint256"
        }
      ],
      "name": "FeeAmountUpdated",
      "type": "event"
    },
    {
      "anonymous": false,
      "inputs": [
        {
          "indexed": true,
          "internalType": "address",
          "name": "user",
          "type": "address"
        },
        {
          "indexed": false,
          "internalType": "uint256",
          "name": "amount",
          "type": "uint256"
        },
        {
          "indexed": false,
          "internalType": "uint256",
          "name": "timestamp",
          "type": "uint256"
        }
      ],
      "name": "FundsClaimed",
      "type": "event"
    },
    {
      "anonymous": false,
      "inputs": [
        {
          "indexed": true,
          "internalType": "address",
          "name": "nftAddress",
          "type": "address"
        },
        {
          "indexed": false,
          "internalType": "uint256",
          "name": "tokenId",
          "type": "uint256"
        },
        {
          "indexed": true,
          "internalType": "address",
          "name": "seller",
          "type": "address"
        },
        {
          "indexed": false,
          "internalType": "uint256",
          "name": "cancelTimestamp",
          "type": "uint256"
        }
      ],
      "name": "ListingCancelled",
      "type": "event"
    },
    {
      "anonymous": false,
      "inputs": [
        {
          "indexed": true,
          "internalType": "address",
          "name": "nftAddress",
          "type": "address"
        },
        {
          "indexed": true,
          "internalType": "uint256",
          "name": "tokenId",
          "type": "uint256"
        },
        {
          "indexed": false,
          "internalType": "address",
          "name": "seller",
          "type": "address"
        },
        {
          "indexed": false,
          "internalType": "uint256",
          "name": "price",
          "type": "uint256"
        },
        {
          "indexed": false,
          "internalType": "uint256",
          "name": "startTimestamp",
          "type": "uint256"
        },
        {
          "indexed": false,
          "internalType": "uint256",
          "name": "endTimestamp",
          "type": "uint256"
        }
      ],
      "name": "ListingCreated",
      "type": "event"
    },
    {
      "anonymous": false,
      "inputs": [
        {
          "indexed": true,
          "internalType": "address",
          "name": "nftAddress",
          "type": "address"
        },
        {
          "indexed": false,
          "internalType": "uint256",
          "name": "tokenId",
          "type": "uint256"
        },
        {
          "indexed": false,
          "internalType": "uint256",
          "name": "oldPrice",
          "type": "uint256"
        },
        {
          "indexed": false,
          "internalType": "uint256",
          "name": "newPrice",
          "type": "uint256"
        },
        {
          "indexed": false,
          "internalType": "uint256",
          "name": "timestamp",
          "type": "uint256"
        }
      ],
      "name": "ListingPriceUpdated",
      "type": "event"
    },
    {
      "anonymous": false,
      "inputs": [
        {
          "indexed": true,
          "internalType": "address",
          "name": "nftAddress",
          "type": "address"
        },
        {
          "indexed": false,
          "internalType": "uint256",
          "name": "tokenId",
          "type": "uint256"
        },
        {
          "indexed": true,
          "internalType": "address",
          "name": "bidder",
          "type": "address"
        },
        {
          "indexed": false,
          "internalType": "uint256",
          "name": "bid",
          "type": "uint256"
        },
        {
          "indexed": false,
          "internalType": "uint256",
          "name": "previousHighestBid",
          "type": "uint256"
        },
        {
          "indexed": false,
          "internalType": "uint256",
          "name": "timestamp",
          "type": "uint256"
        }
      ],
      "name": "NewHighestBid",
      "type": "event"
    },
    {
      "anonymous": false,
      "inputs": [
        {
          "indexed": true,
          "internalType": "address",
          "name": "previousOwner",
          "type": "address"
        },
        {
          "indexed": true,
          "internalType": "address",
          "name": "newOwner",
          "type": "address"
        }
      ],
      "name": "OwnershipTransferred",
      "type": "event"
    },
    {
      "anonymous": false,
      "inputs": [
        {
          "indexed": true,
          "internalType": "address",
          "name": "nftAddress",
          "type": "address"
        },
        {
          "indexed": false,
          "internalType": "uint256",
          "name": "tokenId",
          "type": "uint256"
        },
        {
          "indexed": true,
          "internalType": "address",
          "name": "seller",
          "type": "address"
        },
        {
          "indexed": true,
          "internalType": "address",
          "name": "buyer",
          "type": "address"
        },
        {
          "indexed": false,
          "internalType": "uint256",
          "name": "price",
          "type": "uint256"
        },
        {
          "indexed": false,
          "internalType": "uint256",
          "name": "endTimestamp",
          "type": "uint256"
        }
      ],
      "name": "Purchase",
      "type": "event"
    },
    {
      "inputs": [
        {
          "internalType": "bytes32",
          "name": "",
          "type": "bytes32"
        }
      ],
      "name": "auctions",
      "outputs": [
        {
          "internalType": "contract IERC721",
          "name": "nft",
          "type": "address"
        },
        {
          "internalType": "uint256",
          "name": "tokenId",
          "type": "uint256"
        },
        {
          "internalType": "address payable",
          "name": "seller",
          "type": "address"
        },
        {
          "internalType": "uint256",
          "name": "floorPrice",
          "type": "uint256"
        },
        {
          "internalType": "uint256",
          "name": "sellPrice",
          "type": "uint256"
        },
        {
          "internalType": "address",
          "name": "highestBidder",
          "type": "address"
        },
        {
          "internalType": "uint256",
          "name": "highestBid",
          "type": "uint256"
        },
        {
          "internalType": "bool",
          "name": "cancelled",
          "type": "bool"
        },
        {
          "internalType": "bool",
          "name": "ended",
          "type": "bool"
        },
        {
          "internalType": "uint256",
          "name": "startTimestamp",
          "type": "uint256"
        },
        {
          "internalType": "uint256",
          "name": "endTimestamp",
          "type": "uint256"
        }
      ],
      "stateMutability": "view",
      "type": "function"
    },
    {
      "inputs": [],
      "name": "auctionsCount",
      "outputs": [
        {
          "internalType": "uint256",
          "name": "_value",
          "type": "uint256"
        }
      ],
      "stateMutability": "view",
      "type": "function"
    },
    {
      "inputs": [],
      "name": "auctionsSoldCount",
      "outputs": [
        {
          "internalType": "uint256",
          "name": "_value",
          "type": "uint256"
        }
      ],
      "stateMutability": "view",
      "type": "function"
    },
    {
      "inputs": [
        {
          "internalType": "bytes32",
          "name": "auctionKey",
          "type": "bytes32"
        }
      ],
      "name": "bid",
      "outputs": [],
      "stateMutability": "payable",
      "type": "function"
    },
    {
      "inputs": [
        {
          "internalType": "bytes32",
          "name": "auctionKey",
          "type": "bytes32"
        }
      ],
      "name": "cancelAuction",
      "outputs": [],
      "stateMutability": "nonpayable",
      "type": "function"
    },
    {
      "inputs": [
        {
          "internalType": "bytes32",
          "name": "listingKey",
          "type": "bytes32"
        }
      ],
      "name": "cancelListing",
      "outputs": [],
      "stateMutability": "nonpayable",
      "type": "function"
    },
    {
      "inputs": [
        {
          "internalType": "contract IERC721",
          "name": "nft",
          "type": "address"
        },
        {
          "internalType": "uint256",
          "name": "tokenId",
          "type": "uint256"
        },
        {
          "internalType": "uint256",
          "name": "floorPrice",
          "type": "uint256"
        },
        {
          "internalType": "uint256",
          "name": "startTimestamp",
          "type": "uint256"
        },
        {
          "internalType": "uint256",
          "name": "endTimestamp",
          "type": "uint256"
        }
      ],
      "name": "createAuction",
      "outputs": [],
      "stateMutability": "nonpayable",
      "type": "function"
    },
    {
      "inputs": [
        {
          "internalType": "contract IERC721",
          "name": "nft",
          "type": "address"
        },
        {
          "internalType": "uint256",
          "name": "tokenId",
          "type": "uint256"
        },
        {
          "internalType": "uint256",
          "name": "price",
          "type": "uint256"
        },
        {
          "internalType": "uint256",
          "name": "startTimestamp",
          "type": "uint256"
        },
        {
          "internalType": "uint256",
          "name": "endTimestamp",
          "type": "uint256"
        }
      ],
      "name": "createListing",
      "outputs": [],
      "stateMutability": "nonpayable",
      "type": "function"
    },
    {
      "inputs": [
        {
          "internalType": "bytes32",
          "name": "auctionKey",
          "type": "bytes32"
        }
      ],
      "name": "endAuction",
      "outputs": [],
      "stateMutability": "nonpayable",
      "type": "function"
    },
    {
      "inputs": [],
      "name": "fee",
      "outputs": [
        {
          "internalType": "uint256",
          "name": "",
          "type": "uint256"
        }
      ],
      "stateMutability": "view",
      "type": "function"
    },
    {
      "inputs": [],
      "name": "feeAccount",
      "outputs": [
        {
          "internalType": "address payable",
          "name": "",
          "type": "address"
        }
      ],
      "stateMutability": "view",
      "type": "function"
    },
    {
      "inputs": [
        {
          "internalType": "contract IERC721",
          "name": "nft",
          "type": "address"
        },
        {
          "internalType": "uint256",
          "name": "tokenId",
          "type": "uint256"
        }
      ],
      "name": "getKey",
      "outputs": [
        {
          "internalType": "bytes32",
          "name": "",
          "type": "bytes32"
        }
      ],
      "stateMutability": "pure",
      "type": "function"
    },
    {
      "inputs": [
        {
          "internalType": "bytes32",
          "name": "",
          "type": "bytes32"
        }
      ],
      "name": "listings",
      "outputs": [
        {
          "internalType": "contract IERC721",
          "name": "nft",
          "type": "address"
        },
        {
          "internalType": "uint256",
          "name": "tokenId",
          "type": "uint256"
        },
        {
          "internalType": "address payable",
          "name": "seller",
          "type": "address"
        },
        {
          "internalType": "uint256",
          "name": "price",
          "type": "uint256"
        },
        {
          "internalType": "bool",
          "name": "sold",
          "type": "bool"
        },
        {
          "internalType": "address",
          "name": "buyer",
          "type": "address"
        },
        {
          "internalType": "uint256",
          "name": "startTimestamp",
          "type": "uint256"
        },
        {
          "internalType": "uint256",
          "name": "endTimestamp",
          "type": "uint256"
        },
        {
          "internalType": "bool",
          "name": "cancelled",
          "type": "bool"
        }
      ],
      "stateMutability": "view",
      "type": "function"
    },
    {
      "inputs": [],
      "name": "listingsCount",
      "outputs": [
        {
          "internalType": "uint256",
          "name": "_value",
          "type": "uint256"
        }
      ],
      "stateMutability": "view",
      "type": "function"
    },
    {
      "inputs": [],
      "name": "listingsSoldCount",
      "outputs": [
        {
          "internalType": "uint256",
          "name": "_value",
          "type": "uint256"
        }
      ],
      "stateMutability": "view",
      "type": "function"
    },
    {
      "inputs": [
        {
          "internalType": "address",
          "name": "",
          "type": "address"
        },
        {
          "internalType": "address",
          "name": "",
          "type": "address"
        },
        {
          "internalType": "uint256",
          "name": "",
          "type": "uint256"
        },
        {
          "internalType": "bytes",
          "name": "",
          "type": "bytes"
        }
      ],
      "name": "onERC721Received",
      "outputs": [
        {
          "internalType": "bytes4",
          "name": "",
          "type": "bytes4"
        }
      ],
      "stateMutability": "nonpayable",
      "type": "function"
    },
    {
      "inputs": [],
      "name": "owner",
      "outputs": [
        {
          "internalType": "address",
          "name": "",
          "type": "address"
        }
      ],
      "stateMutability": "view",
      "type": "function"
    },
    {
      "inputs": [
        {
          "internalType": "bytes32",
          "name": "listingKey",
          "type": "bytes32"
        }
      ],
      "name": "purchase",
      "outputs": [],
      "stateMutability": "payable",
      "type": "function"
    },
    {
      "inputs": [],
      "name": "renounceOwnership",
      "outputs": [],
      "stateMutability": "nonpayable",
      "type": "function"
    },
    {
      "inputs": [
        {
          "internalType": "address",
          "name": "newOwner",
          "type": "address"
        }
      ],
      "name": "transferOwnership",
      "outputs": [],
      "stateMutability": "nonpayable",
      "type": "function"
    },
    {
      "inputs": [
        {
          "internalType": "bytes32",
          "name": "listingKey",
          "type": "bytes32"
        },
        {
          "internalType": "uint256",
          "name": "newPrice",
          "type": "uint256"
        }
      ],
      "name": "updateListingPrice",
      "outputs": [],
      "stateMutability": "nonpayable",
      "type": "function"
    },
    {
      "inputs": [
        {
          "internalType": "address",
          "name": "",
          "type": "address"
        }
      ],
      "name": "userFunds",
      "outputs": [
        {
          "internalType": "uint256",
          "name": "",
          "type": "uint256"
        }
      ],
      "stateMutability": "view",
      "type": "function"
    },
    {
      "inputs": [
        {
          "internalType": "bytes32",
          "name": "auctionKey",
          "type": "bytes32"
        }
      ],
      "name": "withdrawBid",
      "outputs": [],
      "stateMutability": "nonpayable",
      "type": "function"
    }
  ],
  "bytecode": "0x60806040523480156200001157600080fd5b5060405162002a3438038062002a348339810160408190526200003491620000bd565b6200003f336200006d565b60018055600980546001600160a01b0319166001600160a01b039390931692909217909155600a55620000f9565b600080546001600160a01b038381166001600160a01b0319831681178455604051919092169283917f8be0079c531659141344cd1fd0a4f28419497f9722a3daafe3b4186f6b6457e09190a35050565b60008060408385031215620000d157600080fd5b82516001600160a01b0381168114620000e957600080fd5b6020939093015192949293505050565b61292b80620001096000396000f3fe6080604052600436106101405760003560e01c80639057f289116100b6578063c18b8db41161006f578063c18b8db414610464578063cc44561114610539578063cd2cb1241461054c578063ddca3f4314610563578063f2fde38b14610579578063f7fd24c71461059957600080fd5b80639057f289146103ba5780639299e552146103da578063957bb1e0146103fa578063961c9ae41461040d578063a369f72e1461042d578063b830620a1461044d57600080fd5b80633ef4d130116101085780633ef4d130146102eb57806346b1df041461030b57806365e17c9d14610322578063715018a61461035a5780638387c6e11461036f5780638da5cb5b1461039c57600080fd5b806301db46a014610145578063150b7a0214610167578063186c5ece146101b05780631edbc5be146101d55780633e93d0cd146102cb575b600080fd5b34801561015157600080fd5b5061016561016036600461255a565b6105b9565b005b34801561017357600080fd5b5061019261018236600461259e565b630a85bd0160e11b949350505050565b6040516001600160e01b031990911681526020015b60405180910390f35b3480156101bc57600080fd5b506006546101c79081565b6040519081526020016101a7565b3480156101e157600080fd5b5061025e6101f036600461255a565b60076020819052600091825260409091208054600182015460028301546003840154600485015460068601549686015460088701546009880154600a909801546001600160a01b0397881699969895881697949693959390941693919260ff8083169361010090930416918b565b604080516001600160a01b039c8d168152602081019b909b52988b16988a0198909852606089019690965260808801949094529690911660a086015260c085015293151560e0840152921515610100830152610120820192909252610140810191909152610160016101a7565b3480156102d757600080fd5b506101656102e636600461267e565b610976565b3480156102f757600080fd5b5061016561030636600461255a565b610bfa565b34801561031757600080fd5b506002546101c79081565b34801561032e57600080fd5b50600954610342906001600160a01b031681565b6040516001600160a01b0390911681526020016101a7565b34801561036657600080fd5b50610165610df4565b34801561037b57600080fd5b506101c761038a3660046126a0565b60086020526000908152604090205481565b3480156103a857600080fd5b506000546001600160a01b0316610342565b3480156103c657600080fd5b506101656103d53660046126c4565b610e08565b3480156103e657600080fd5b506101656103f536600461255a565b6110ca565b61016561040836600461255a565b61132d565b34801561041957600080fd5b506101656104283660046126c4565b611612565b34801561043957600080fd5b506101c7610448366004612708565b6118ef565b34801561045957600080fd5b506005546101c79081565b34801561047057600080fd5b506104dc61047f36600461255a565b6004602081905260009182526040909120805460018201546002830154600384015494840154600585015460068601546007909601546001600160a01b039586169794969386169560ff8085169561010090950490911693911689565b604080516001600160a01b039a8b1681526020810199909952968916968801969096526060870194909452911515608086015290941660a084015260c083019390935260e0820192909252901515610100820152610120016101a7565b61016561054736600461255a565b611937565b34801561055857600080fd5b506003546101c79081565b34801561056f57600080fd5b506101c7600a5481565b34801561058557600080fd5b506101656105943660046126a0565b611df1565b3480156105a557600080fd5b506101656105b436600461255a565b611e67565b6105c161205c565b60008181526007602052604090206002015481906001600160a01b0316331461062a5760405162461bcd60e51b81526020600482015260166024820152752737ba103a34329030bab1ba34b7b71039b2b63632b960511b60448201526064015b60405180910390fd5b600082815260076020526040902060080154829060ff161561065e5760405162461bcd60e51b815260040161062190612734565b6000838152600760205260409020600a0154839042116106c05760405162461bcd60e51b815260206004820152601860248201527f486176656e2774207265616368656420656e642074696d6500000000000000006044820152606401610621565b6000848152600760205260409020600801548490610100900460ff16156107215760405162461bcd60e51b8152602060048201526015602482015274105d58dd1a5bdb88185b1c9958591e48195b991959605a1b6044820152606401610621565b600085815260076020526040902060088101805461ff00191661010017905560068101546001600160a01b03161561088b576006810180546001600160a01b039081166000908152600584016020526040808220919091558354925460018501549151632142170760e11b8152938316936342842e0e936107aa9330939091169160040161276b565b600060405180830381600087803b1580156107c457600080fd5b505af11580156107d8573d6000803e3d6000fd5b50505050600281015460078201546040516000926001600160a01b031691908381818185875af1925050503d806000811461082f576040519150601f19603f3d011682016040523d82523d6000602084013e610834565b606091505b50509050806108855760405162461bcd60e51b815260206004820152601860248201527f4661696c656420746f20706179207468652073656c6c657200000000000000006044820152606401610621565b506108fc565b805460028201546001830154604051632142170760e11b81526001600160a01b03938416936342842e0e936108c9933093929091169160040161276b565b600060405180830381600087803b1580156108e357600080fd5b505af11580156108f7573d6000803e3d6000fd5b505050505b600681015460028201548254600184015460078501546040805192835260208301919091524282820152516001600160a01b039485169493841693909216917f4c6796d6fef927f7c9f869d2e9a4ed60bf6b4b3533643877e20ea784446b16c89181900360600190a4505050505061097360018055565b50565b60008281526004602081815260409283902083516101208101855281546001600160a01b039081168083526001840154948301949094526002830154811695820195909552600382015460608201529281015460ff808216151560808601526101009182900490951660a0850152600582015460c0850152600682015460e0850152600790910154909316151592820192909252839115801590610a1d5750602081015115155b8015610a35575060408101516001600160a01b031615155b8015610a45575060008160600151115b8015610a55575060008160c00151115b8015610a65575060008160e00151115b610a815760405162461bcd60e51b81526004016106219061278f565b60008481526004602052604090206002015484906001600160a01b03163314610ae55760405162461bcd60e51b81526020600482015260166024820152752737ba103a3432903634b9ba34b7339039b2b63632b960511b6044820152606401610621565b60008581526004602052604090206006015485904210610b175760405162461bcd60e51b8152600401610621906127bc565b60008681526004602052604090206003810154808703610b905760405162461bcd60e51b815260206004820152602e60248201527f4e6577207072696365206d75737420626520646966666572656e742066726f6d60448201526d2063757272656e7420707269636560901b6064820152608401610621565b6003820187905581546001830154604080519182526020820184905281018990524260608201526001600160a01b03909116907fbee49f4b4e1806a7223a369d870ce896e8102b340c2965cb5641529ba9915e119060800160405180910390a25050505050505050565b610c0261205c565b60008181526007602052604090206002015481906001600160a01b03163314610c665760405162461bcd60e51b81526020600482015260166024820152752737ba103a34329030bab1ba34b7b71039b2b63632b960511b6044820152606401610621565b600082815260076020526040902060080154829060ff1615610c9a5760405162461bcd60e51b815260040161062190612734565b6000838152600760205260409020600a015483904210610cf05760405162461bcd60e51b8152602060048201526011602482015270105d58dd1a5bdb881a185cc8195b991959607a1b6044820152606401610621565b6000848152600760205260409081902060088101805460ff191660019081179091556006820180546001600160a01b031916905581546002830154918301549351632142170760e11b815292936001600160a01b03918216936342842e0e93610d6093309391169160040161276b565b600060405180830381600087803b158015610d7a57600080fd5b505af1158015610d8e573d6000803e3d6000fd5b50505050600281015481546001830154604080519182524260208301526001600160a01b0393841693909216917fed99d0d4c88606b9c8fac6251e8a3525854dd4418c15df71565c3908f61ae63491015b60405180910390a35050505061097360018055565b610dfc6120b5565b610e06600061210f565b565b84846000600481610e1985856118ef565b81526020810191909152604001600020600201546001600160a01b0316148015610e6c57506000600781610e4d85856118ef565b81526020810191909152604001600020600201546001600160a01b0316145b610eb05760405162461bcd60e51b8152602060048201526015602482015274139195081a5cc8185b1c9958591e481b1a5cdd1959605a1b6044820152606401610621565b8686336000836001600160a01b0316636352211e846040518263ffffffff1660e01b8152600401610ee391815260200190565b602060405180830381865afa158015610f00573d6000803e3d6000fd5b505050506040513d601f19601f82011682018060405250810190610f2491906127e7565b90506001600160a01b038116331480610fa8575060405163e985e9c560e01b81526001600160a01b03828116600483015233602483015285169063e985e9c590604401602060405180830381865afa158015610f84573d6000803e3d6000fd5b505050506040513d601f19601f82011682018060405250810190610fa89190612804565b610fc45760405162461bcd60e51b815260040161062190612826565b60405163020604bf60e21b8152600481018b90528b908b9030906001600160a01b0384169063081812fc90602401602060405180830381865afa15801561100f573d6000803e3d6000fd5b505050506040513d601f19601f8201168201806040525081019061103391906127e7565b6001600160a01b0316146110595760405162461bcd60e51b815260040161062190612884565b6110668d8d8d8d8d61215f565b60408051338152602081018d90529081018b9052606081018a90528c906001600160a01b038f16907fe859c2cbca9b97ca390441dd075340d492988b66792e323e987e603c41ce65989060800160405180910390a350505050505050505050505050565b60008181526004602081815260409283902083516101208101855281546001600160a01b039081168083526001840154948301949094526002830154811695820195909552600382015460608201529281015460ff808216151560808601526101009182900490951660a0850152600582015460c0850152600682015460e08501526007909101549093161515928201929092528291158015906111715750602081015115155b8015611189575060408101516001600160a01b031615155b8015611199575060008160600151115b80156111a9575060008160c00151115b80156111b9575060008160e00151115b6111d55760405162461bcd60e51b81526004016106219061278f565b60008381526004602052604090206002015483906001600160a01b031633146112395760405162461bcd60e51b81526020600482015260166024820152752737ba103a3432903634b9ba34b7339039b2b63632b960511b6044820152606401610621565b6000848152600460205260409020600601548490421061126b5760405162461bcd60e51b8152600401610621906127bc565b600085815260046020818152604080842080546001820180546002840180546001600160a01b03198086168755938a905592831690556003840188905595830180546001600160a81b031916905560058301879055600683019690965560078201805460ff191690558251858152429481019490945290946001600160a01b039182169493911691829185917f7e9346997a866f9da27c72b74f12d9f30db039f0ac25228e3c63a916977f3cca910160405180910390a3505050505050505050565b60008181526007602052604090206002015481906001600160a01b031633036113985760405162461bcd60e51b815260206004820152601f60248201527f53656c6c65722063616e27742063616c6c20746869732066756e6374696f6e006044820152606401610621565b600082815260076020526040902060080154829060ff16156113cc5760405162461bcd60e51b815260040161062190612734565b600083815260076020526040902060090154839042101561142f5760405162461bcd60e51b815260206004820152601a60248201527f41756374696f6e206861736e27742073746172746564207965740000000000006044820152606401610621565b6000848152600760205260409020600a0154849042106114855760405162461bcd60e51b8152602060048201526011602482015270105d58dd1a5bdb881a185cc8195b991959607a1b6044820152606401610621565b600034116114d55760405162461bcd60e51b815260206004820152601960248201527f53656e6420657468657220746f20706c616365206120626964000000000000006044820152606401610621565b60008581526007602081815260408084209283015433855260058401909252832054919290916115069034906128d4565b905082600301548110156115745760405162461bcd60e51b815260206004820152602f60248201527f4269642076616c75652073686f756c6420626520686967686572207468616e2060448201526e74686520666c6f6f7220707269636560881b6064820152608401610621565b33600090815260058401602052604090208190558181111561160857600783018190556006830180546001600160a01b0319163390811790915583546001850154604080519182526020820185905281018590524260608201526001600160a01b03909116907fa95a82dc3c7354a2f70d81f8df005005cc4502178ed4da047745fc21befa6f489060800160405180910390a35b5050505050505050565b61161a61205c565b8484600060048161162b85856118ef565b81526020810191909152604001600020600201546001600160a01b031614801561167e5750600060078161165f85856118ef565b81526020810191909152604001600020600201546001600160a01b0316145b6116c25760405162461bcd60e51b8152602060048201526015602482015274139195081a5cc8185b1c9958591e481b1a5cdd1959605a1b6044820152606401610621565b8686336000836001600160a01b0316636352211e846040518263ffffffff1660e01b81526004016116f591815260200190565b602060405180830381865afa158015611712573d6000803e3d6000fd5b505050506040513d601f19601f8201168201806040525081019061173691906127e7565b90506001600160a01b0381163314806117ba575060405163e985e9c560e01b81526001600160a01b03828116600483015233602483015285169063e985e9c590604401602060405180830381865afa158015611796573d6000803e3d6000fd5b505050506040513d601f19601f820116820180604052508101906117ba9190612804565b6117d65760405162461bcd60e51b815260040161062190612826565b60405163020604bf60e21b8152600481018b90528b908b9030906001600160a01b0384169063081812fc90602401602060405180830381865afa158015611821573d6000803e3d6000fd5b505050506040513d601f19601f8201168201806040525081019061184591906127e7565b6001600160a01b03161461186b5760405162461bcd60e51b815260040161062190612884565b6118788d8d8d8d8d61235d565b6118828d8d612484565b60408051338152602081018d90529081018b9052606081018a90528c906001600160a01b038f16907fecde1ffd2965d959f69fb469e60403b746a142d4ce09ca900a52f143855db7fa9060800160405180910390a350505050505050506118e860018055565b5050505050565b6040516bffffffffffffffffffffffff19606084901b166020820152603481018290526000906054016040516020818303038152906040528051906020012090505b92915050565b61193f61205c565b60008181526004602081815260409283902083516101208101855281546001600160a01b039081168083526001840154948301949094526002830154811695820195909552600382015460608201529281015460ff808216151560808601526101009182900490951660a0850152600582015460c0850152600682015460e08501526007909101549093161515928201929092528291158015906119e65750602081015115155b80156119fe575060408101516001600160a01b031615155b8015611a0e575060008160600151115b8015611a1e575060008160c00151115b8015611a2e575060008160e00151115b611a4a5760405162461bcd60e51b81526004016106219061278f565b60008381526004602052604090206002015483906001600160a01b03163303611ab55760405162461bcd60e51b815260206004820152601f60248201527f53656c6c65722063616e27742063616c6c20746869732066756e6374696f6e006044820152606401610621565b6000848152600460205260409020600501548490421015611b185760405162461bcd60e51b815260206004820152601a60248201527f4c697374696e67206861736e27742073746172746564207965740000000000006044820152606401610621565b60008581526004602052604090206006015485904210611b4a5760405162461bcd60e51b8152600401610621906127bc565b60008681526004602081815260409283902083516101208101855281546001600160a01b03908116825260018301549382019390935260028201548316948101949094526003810154606085018190529281015460ff808216151560808701526101009182900490931660a0860152600582015460c0860152600682015460e0860152600790910154909116151590830152341015611c365760405162461bcd60e51b815260206004820152602260248201527f496e73756666696369656e742066756e647320746f207075726368617365204e604482015261119560f21b6064820152608401610621565b60008781526004602081815260408084208301805460ff1916600117905584519185015190516331a9108f60e11b8152928301526001600160a01b031690636352211e90602401602060405180830381865afa158015611c9a573d6000803e3d6000fd5b505050506040513d601f19601f82011682018060405250810190611cbe91906127e7565b82516020840151604051632142170760e11b81529293506001600160a01b03909116916342842e0e91611cf7918591339160040161276b565b600060405180830381600087803b158015611d1157600080fd5b505af1158015611d25573d6000803e3d6000fd5b5050505081604001516001600160a01b03166108fc349081150290604051600060405180830381858888f19350505050158015611d66573d6000803e3d6000fd5b50336001600160a01b031682604001516001600160a01b031683600001516001600160a01b03167fac14cac126dec46eb2cef1007f2e33dcf4704d2be6c45b0855acf8b81b89e0848560200151866060015142604051611dd9939291909283526020830191909152604082015260600190565b60405180910390a45050505050505061097360018055565b611df96120b5565b6001600160a01b038116611e5e5760405162461bcd60e51b815260206004820152602660248201527f4f776e61626c653a206e6577206f776e657220697320746865207a65726f206160448201526564647265737360d01b6064820152608401610621565b6109738161210f565b611e6f61205c565b600081815260076020526040902060080154819060ff1680611ea75750600081815260076020526040902060080154610100900460ff165b611ef35760405162461bcd60e51b815260206004820152601760248201527f41756374696f6e206973207374696c6c206163746976650000000000000000006044820152606401610621565b6000828152600760209081526040808320338452600581019092529091205480611f565760405162461bcd60e51b81526020600482015260146024820152734e6f2066756e647320746f20776974686472617760601b6044820152606401610621565b3360008181526005840160205260408082208290555190919083908381818185875af1925050503d8060008114611fa9576040519150601f19603f3d011682016040523d82523d6000602084013e611fae565b606091505b505090508061200a5760405162461bcd60e51b815260206004820152602260248201527f4661696c656420746f2073656e64206269642066756e647320746f206269646460448201526132b960f11b6064820152608401610621565b82546001840154604080519182526020820185905242908201526001600160a01b039091169033907f46cce332df0365db367d477c6d8e48abceacdfc4d835aaa4417ba74567fafb2890606001610ddf565b6002600154036120ae5760405162461bcd60e51b815260206004820152601f60248201527f5265656e7472616e637947756172643a207265656e7472616e742063616c6c006044820152606401610621565b6002600155565b6000546001600160a01b03163314610e065760405162461bcd60e51b815260206004820181905260248201527f4f776e61626c653a2063616c6c6572206973206e6f7420746865206f776e65726044820152606401610621565b600080546001600160a01b038381166001600160a01b0319831681178455604051919092169283917f8be0079c531659141344cd1fd0a4f28419497f9722a3daafe3b4186f6b6457e09190a35050565b82600081116121b05760405162461bcd60e51b815260206004820152601f60248201527f5072696365206d7573742062652067726561746572207468616e207a65726f006044820152606401610621565b82826000821180156121c157504281115b80156121cc57508082105b61220d5760405162461bcd60e51b8152602060048201526012602482015271496e76616c69642074696d657374616d707360701b6044820152606401610621565b61221b600280546001019055565b60006040518061012001604052808a6001600160a01b03168152602001898152602001336001600160a01b0316815260200188815260200160001515815260200160006001600160a01b0316815260200187815260200186815260200160001515815250905080600460006122908c8c6118ef565b81526020808201929092526040908101600020835181546001600160a01b03199081166001600160a01b03928316178355938501516001830155918401516002820180549094169083161790925560608301516003830155608083015160048301805460a08601516001600160a81b0319909116921515610100600160a81b031916929092176101009290931682029290921790915560c0830151600583015560e08301516006830155909101516007909101805460ff1916911515919091179055505050505050505050565b82600081116123ae5760405162461bcd60e51b815260206004820152601f60248201527f5072696365206d7573742062652067726561746572207468616e207a65726f006044820152606401610621565b82826000821180156123bf57504281115b80156123ca57508082105b61240b5760405162461bcd60e51b8152602060048201526012602482015271496e76616c69642074696d657374616d707360701b6044820152606401610621565b612419600580546001019055565b6000600760006124298b8b6118ef565b8152602081019190915260400160002080546001600160a01b03909a166001600160a01b03199a8b161781556001810198909855505050600285018054909616331790955560038401929092556009830155600a9091015550565b6040516331a9108f60e11b8152600481018290526000906001600160a01b03841690636352211e90602401602060405180830381865afa1580156124cc573d6000803e3d6000fd5b505050506040513d601f19601f820116820180604052508101906124f091906127e7565b604051632142170760e11b81529091506001600160a01b038416906342842e0e906125239084903090879060040161276b565b600060405180830381600087803b15801561253d57600080fd5b505af1158015612551573d6000803e3d6000fd5b50505050505050565b60006020828403121561256c57600080fd5b5035919050565b6001600160a01b038116811461097357600080fd5b634e487b7160e01b600052604160045260246000fd5b600080600080608085870312156125b457600080fd5b84356125bf81612573565b935060208501356125cf81612573565b925060408501359150606085013567ffffffffffffffff808211156125f357600080fd5b818701915087601f83011261260757600080fd5b81358181111561261957612619612588565b604051601f8201601f19908116603f0116810190838211818310171561264157612641612588565b816040528281528a602084870101111561265a57600080fd5b82602086016020830137600060208483010152809550505050505092959194509250565b6000806040838503121561269157600080fd5b50508035926020909101359150565b6000602082840312156126b257600080fd5b81356126bd81612573565b9392505050565b600080600080600060a086880312156126dc57600080fd5b85356126e781612573565b97602087013597506040870135966060810135965060800135945092505050565b6000806040838503121561271b57600080fd5b823561272681612573565b946020939093013593505050565b6020808252601c908201527f41756374696f6e20697320616c72656164792063616e63656c6c656400000000604082015260600190565b6001600160a01b039384168152919092166020820152604081019190915260600190565b6020808252601390820152724e6f7420612076616c6964206c697374696e6760681b604082015260600190565b602080825260119082015270131a5cdd1a5b99c81a185cc8195b991959607a1b604082015260600190565b6000602082840312156127f957600080fd5b81516126bd81612573565b60006020828403121561281657600080fd5b815180151581146126bd57600080fd5b602080825260409082018190527f4d75737420626520746865206f776e6572206f7220617070726f76656420666f908201527f7220616c6c20746f206c69737420696e20746865206d61726b6574706c616365606082015260800190565b60208082526030908201527f4d61726b6574706c616365206d75737420626520617070726f76656420746f2060408201526f1d1c985b9cd9995c881d1a194813919560821b606082015260800190565b8082018082111561193157634e487b7160e01b600052601160045260246000fdfea26469706673582212206700543dc23276bd6562d7c03376102c382ab2fde544b02f88f91c070efb86c664736f6c63430008100033",
  "linkReferences": {},
  "deployedLinkReferences": {}
}